{
  "_format": "hh-sol-artifact-1",
  "contractName": "BadgeSBT",
  "sourceName": "contracts/BadgeSBT.sol",
  "abi": [
    {
      "inputs": [
        {
          "internalType": "string",
          "name": "name_",
          "type": "string"
        },
        {
          "internalType": "string",
          "name": "symbol_",
          "type": "string"
        },
        {
          "internalType": "address",
          "name": "initialOwner",
          "type": "address"
        }
      ],
      "stateMutability": "nonpayable",
      "type": "constructor"
    },
    {
      "inputs": [
        {
          "internalType": "address",
          "name": "sender",
          "type": "address"
        },
        {
          "internalType": "uint256",
          "name": "tokenId",
          "type": "uint256"
        },
        {
          "internalType": "address",
          "name": "owner",
          "type": "address"
        }
      ],
      "name": "ERC721IncorrectOwner",
      "type": "error"
    },
    {
      "inputs": [
        {
          "internalType": "address",
          "name": "operator",
          "type": "address"
        },
        {
          "internalType": "uint256",
          "name": "tokenId",
          "type": "uint256"
        }
      ],
      "name": "ERC721InsufficientApproval",
      "type": "error"
    },
    {
      "inputs": [
        {
          "internalType": "address",
          "name": "approver",
          "type": "address"
        }
      ],
      "name": "ERC721InvalidApprover",
      "type": "error"
    },
    {
      "inputs": [
        {
          "internalType": "address",
          "name": "operator",
          "type": "address"
        }
      ],
      "name": "ERC721InvalidOperator",
      "type": "error"
    },
    {
      "inputs": [
        {
          "internalType": "address",
          "name": "owner",
          "type": "address"
        }
      ],
      "name": "ERC721InvalidOwner",
      "type": "error"
    },
    {
      "inputs": [
        {
          "internalType": "address",
          "name": "receiver",
          "type": "address"
        }
      ],
      "name": "ERC721InvalidReceiver",
      "type": "error"
    },
    {
      "inputs": [
        {
          "internalType": "address",
          "name": "sender",
          "type": "address"
        }
      ],
      "name": "ERC721InvalidSender",
      "type": "error"
    },
    {
      "inputs": [
        {
          "internalType": "uint256",
          "name": "tokenId",
          "type": "uint256"
        }
      ],
      "name": "ERC721NonexistentToken",
      "type": "error"
    },
    {
      "inputs": [],
      "name": "EnforcedPause",
      "type": "error"
    },
    {
      "inputs": [],
      "name": "ExpectedPause",
      "type": "error"
    },
    {
      "inputs": [
        {
          "internalType": "address",
          "name": "owner",
          "type": "address"
        }
      ],
      "name": "OwnableInvalidOwner",
      "type": "error"
    },
    {
      "inputs": [
        {
          "internalType": "address",
          "name": "account",
          "type": "address"
        }
      ],
      "name": "OwnableUnauthorizedAccount",
      "type": "error"
    },
    {
      "anonymous": false,
      "inputs": [
        {
          "indexed": true,
          "internalType": "address",
          "name": "owner",
          "type": "address"
        },
        {
          "indexed": true,
          "internalType": "address",
          "name": "approved",
          "type": "address"
        },
        {
          "indexed": true,
          "internalType": "uint256",
          "name": "tokenId",
          "type": "uint256"
        }
      ],
      "name": "Approval",
      "type": "event"
    },
    {
      "anonymous": false,
      "inputs": [
        {
          "indexed": true,
          "internalType": "address",
          "name": "owner",
          "type": "address"
        },
        {
          "indexed": true,
          "internalType": "address",
          "name": "operator",
          "type": "address"
        },
        {
          "indexed": false,
          "internalType": "bool",
          "name": "approved",
          "type": "bool"
        }
      ],
      "name": "ApprovalForAll",
      "type": "event"
    },
    {
      "anonymous": false,
      "inputs": [
        {
          "indexed": true,
          "internalType": "uint256",
          "name": "tokenId",
          "type": "uint256"
        },
        {
          "indexed": true,
          "internalType": "uint256",
          "name": "templateId",
          "type": "uint256"
        },
        {
          "indexed": true,
          "internalType": "address",
          "name": "recipient",
          "type": "address"
        }
      ],
      "name": "BadgeClaimed",
      "type": "event"
    },
    {
      "anonymous": false,
      "inputs": [
        {
          "indexed": true,
          "internalType": "uint256",
          "name": "templateId",
          "type": "uint256"
        },
        {
          "indexed": true,
          "internalType": "address",
          "name": "issuer",
          "type": "address"
        },
        {
          "indexed": false,
          "internalType": "string",
          "name": "tokenURI",
          "type": "string"
        }
      ],
      "name": "BadgeCreated",
      "type": "event"
    },
    {
      "anonymous": false,
      "inputs": [
        {
          "indexed": false,
          "internalType": "uint256",
          "name": "_fromTokenId",
          "type": "uint256"
        },
        {
          "indexed": false,
          "internalType": "uint256",
          "name": "_toTokenId",
          "type": "uint256"
        }
      ],
      "name": "BatchMetadataUpdate",
      "type": "event"
    },
    {
      "anonymous": false,
      "inputs": [
        {
          "indexed": false,
          "internalType": "uint256",
          "name": "_tokenId",
          "type": "uint256"
        }
      ],
      "name": "MetadataUpdate",
      "type": "event"
    },
    {
      "anonymous": false,
      "inputs": [
        {
          "indexed": true,
          "internalType": "address",
          "name": "previousOwner",
          "type": "address"
        },
        {
          "indexed": true,
          "internalType": "address",
          "name": "newOwner",
          "type": "address"
        }
      ],
      "name": "OwnershipTransferred",
      "type": "event"
    },
    {
      "anonymous": false,
      "inputs": [
        {
          "indexed": false,
          "internalType": "address",
          "name": "account",
          "type": "address"
        }
      ],
      "name": "Paused",
      "type": "event"
    },
    {
      "anonymous": false,
      "inputs": [
        {
          "indexed": true,
          "internalType": "address",
          "name": "from",
          "type": "address"
        },
        {
          "indexed": true,
          "internalType": "address",
          "name": "to",
          "type": "address"
        },
        {
          "indexed": true,
          "internalType": "uint256",
          "name": "tokenId",
          "type": "uint256"
        }
      ],
      "name": "Transfer",
      "type": "event"
    },
    {
      "anonymous": false,
      "inputs": [
        {
          "indexed": false,
          "internalType": "address",
          "name": "account",
          "type": "address"
        }
      ],
      "name": "Unpaused",
      "type": "event"
    },
    {
      "inputs": [
        {
          "internalType": "address",
          "name": "to",
          "type": "address"
        },
        {
          "internalType": "uint256",
          "name": "tokenId",
          "type": "uint256"
        }
      ],
      "name": "approve",
      "outputs": [],
      "stateMutability": "nonpayable",
      "type": "function"
    },
    {
      "inputs": [
        {
          "internalType": "uint256",
          "name": "",
          "type": "uint256"
        }
      ],
      "name": "badgeTemplates",
      "outputs": [
        {
          "internalType": "address",
          "name": "issuer",
          "type": "address"
        },
        {
          "internalType": "string",
          "name": "tokenURI",
          "type": "string"
        }
      ],
      "stateMutability": "view",
      "type": "function"
    },
    {
      "inputs": [
        {
          "internalType": "address",
          "name": "owner",
          "type": "address"
        }
      ],
      "name": "balanceOf",
      "outputs": [
        {
          "internalType": "uint256",
          "name": "",
          "type": "uint256"
        }
      ],
      "stateMutability": "view",
      "type": "function"
    },
    {
      "inputs": [
        {
          "internalType": "uint256",
          "name": "tokenId",
          "type": "uint256"
        }
      ],
      "name": "burn",
      "outputs": [],
      "stateMutability": "nonpayable",
      "type": "function"
    },
    {
      "inputs": [
        {
          "internalType": "uint256",
          "name": "templateId",
          "type": "uint256"
        }
      ],
      "name": "claimBadge",
      "outputs": [],
      "stateMutability": "nonpayable",
      "type": "function"
    },
    {
      "inputs": [
        {
          "internalType": "string",
          "name": "targetTokenURI",
          "type": "string"
        }
      ],
      "name": "createBadge",
      "outputs": [],
      "stateMutability": "nonpayable",
      "type": "function"
    },
    {
      "inputs": [
        {
          "internalType": "uint256",
          "name": "tokenId",
          "type": "uint256"
        }
      ],
      "name": "getApproved",
      "outputs": [
        {
          "internalType": "address",
          "name": "",
          "type": "address"
        }
      ],
      "stateMutability": "view",
      "type": "function"
    },
    {
      "inputs": [
        {
          "internalType": "uint256",
          "name": "templateId",
          "type": "uint256"
        }
      ],
      "name": "getBadgeTemplate",
      "outputs": [
        {
          "internalType": "address",
          "name": "issuer",
          "type": "address"
        },
        {
          "internalType": "string",
          "name": "targetTokenURI",
          "type": "string"
        }
      ],
      "stateMutability": "view",
      "type": "function"
    },
    {
      "inputs": [
        {
          "internalType": "address",
          "name": "user",
          "type": "address"
        }
      ],
      "name": "getClaimedTemplates",
      "outputs": [
        {
          "internalType": "uint256[]",
          "name": "",
          "type": "uint256[]"
        }
      ],
      "stateMutability": "view",
      "type": "function"
    },
    {
      "inputs": [],
      "name": "getTemplateCount",
      "outputs": [
        {
          "internalType": "uint256",
          "name": "",
          "type": "uint256"
        }
      ],
      "stateMutability": "view",
      "type": "function"
    },
    {
      "inputs": [
        {
          "internalType": "uint256",
          "name": "offset",
          "type": "uint256"
        },
        {
          "internalType": "uint256",
          "name": "limit",
          "type": "uint256"
        }
      ],
      "name": "getTemplates",
      "outputs": [
        {
          "components": [
            {
              "internalType": "address",
              "name": "issuer",
              "type": "address"
            },
            {
              "internalType": "string",
              "name": "tokenURI",
              "type": "string"
            }
          ],
          "internalType": "struct BadgeSBT.BadgeTemplate[]",
          "name": "",
          "type": "tuple[]"
        }
      ],
      "stateMutability": "view",
      "type": "function"
    },
    {
      "inputs": [
        {
          "internalType": "uint256",
          "name": "tokenId",
          "type": "uint256"
        }
      ],
      "name": "getTokenInfo",
      "outputs": [
        {
          "internalType": "address",
          "name": "owner",
          "type": "address"
        },
        {
          "internalType": "address",
          "name": "issuer",
          "type": "address"
        },
        {
          "internalType": "string",
          "name": "uri",
          "type": "string"
        }
      ],
      "stateMutability": "view",
      "type": "function"
    },
    {
      "inputs": [
        {
          "internalType": "uint256",
          "name": "",
          "type": "uint256"
        },
        {
          "internalType": "address",
          "name": "",
          "type": "address"
        }
      ],
      "name": "hasClaimed",
      "outputs": [
        {
          "internalType": "bool",
          "name": "",
          "type": "bool"
        }
      ],
      "stateMutability": "view",
      "type": "function"
    },
    {
      "inputs": [
        {
          "internalType": "address",
          "name": "owner",
          "type": "address"
        },
        {
          "internalType": "address",
          "name": "operator",
          "type": "address"
        }
      ],
      "name": "isApprovedForAll",
      "outputs": [
        {
          "internalType": "bool",
          "name": "",
          "type": "bool"
        }
      ],
      "stateMutability": "view",
      "type": "function"
    },
    {
      "inputs": [],
      "name": "name",
      "outputs": [
        {
          "internalType": "string",
          "name": "",
          "type": "string"
        }
      ],
      "stateMutability": "view",
      "type": "function"
    },
    {
      "inputs": [],
      "name": "owner",
      "outputs": [
        {
          "internalType": "address",
          "name": "",
          "type": "address"
        }
      ],
      "stateMutability": "view",
      "type": "function"
    },
    {
      "inputs": [
        {
          "internalType": "uint256",
          "name": "tokenId",
          "type": "uint256"
        }
      ],
      "name": "ownerOf",
      "outputs": [
        {
          "internalType": "address",
          "name": "",
          "type": "address"
        }
      ],
      "stateMutability": "view",
      "type": "function"
    },
    {
      "inputs": [],
      "name": "pause",
      "outputs": [],
      "stateMutability": "nonpayable",
      "type": "function"
    },
    {
      "inputs": [],
      "name": "paused",
      "outputs": [
        {
          "internalType": "bool",
          "name": "",
          "type": "bool"
        }
      ],
      "stateMutability": "view",
      "type": "function"
    },
    {
      "inputs": [],
      "name": "renounceOwnership",
      "outputs": [],
      "stateMutability": "nonpayable",
      "type": "function"
    },
    {
      "inputs": [
        {
          "internalType": "address",
          "name": "from",
          "type": "address"
        },
        {
          "internalType": "address",
          "name": "to",
          "type": "address"
        },
        {
          "internalType": "uint256",
          "name": "tokenId",
          "type": "uint256"
        }
      ],
      "name": "safeTransferFrom",
      "outputs": [],
      "stateMutability": "nonpayable",
      "type": "function"
    },
    {
      "inputs": [
        {
          "internalType": "address",
          "name": "from",
          "type": "address"
        },
        {
          "internalType": "address",
          "name": "to",
          "type": "address"
        },
        {
          "internalType": "uint256",
          "name": "tokenId",
          "type": "uint256"
        },
        {
          "internalType": "bytes",
          "name": "data",
          "type": "bytes"
        }
      ],
      "name": "safeTransferFrom",
      "outputs": [],
      "stateMutability": "nonpayable",
      "type": "function"
    },
    {
      "inputs": [
        {
          "internalType": "address",
          "name": "operator",
          "type": "address"
        },
        {
          "internalType": "bool",
          "name": "approved",
          "type": "bool"
        }
      ],
      "name": "setApprovalForAll",
      "outputs": [],
      "stateMutability": "nonpayable",
      "type": "function"
    },
    {
      "inputs": [
        {
          "internalType": "bytes4",
          "name": "interfaceId",
          "type": "bytes4"
        }
      ],
      "name": "supportsInterface",
      "outputs": [
        {
          "internalType": "bool",
          "name": "",
          "type": "bool"
        }
      ],
      "stateMutability": "view",
      "type": "function"
    },
    {
      "inputs": [],
      "name": "symbol",
      "outputs": [
        {
          "internalType": "string",
          "name": "",
          "type": "string"
        }
      ],
      "stateMutability": "view",
      "type": "function"
    },
    {
      "inputs": [
        {
          "internalType": "uint256",
          "name": "",
          "type": "uint256"
        }
      ],
      "name": "tokenIssuers",
      "outputs": [
        {
          "internalType": "address",
          "name": "",
          "type": "address"
        }
      ],
      "stateMutability": "view",
      "type": "function"
    },
    {
      "inputs": [
        {
          "internalType": "uint256",
          "name": "tokenId",
          "type": "uint256"
        }
      ],
      "name": "tokenURI",
      "outputs": [
        {
          "internalType": "string",
          "name": "",
          "type": "string"
        }
      ],
      "stateMutability": "view",
      "type": "function"
    },
    {
      "inputs": [
        {
          "internalType": "address",
          "name": "from",
          "type": "address"
        },
        {
          "internalType": "address",
          "name": "to",
          "type": "address"
        },
        {
          "internalType": "uint256",
          "name": "tokenId",
          "type": "uint256"
        }
      ],
      "name": "transferFrom",
      "outputs": [],
      "stateMutability": "nonpayable",
      "type": "function"
    },
    {
      "inputs": [
        {
          "internalType": "address",
          "name": "newOwner",
          "type": "address"
        }
      ],
      "name": "transferOwnership",
      "outputs": [],
      "stateMutability": "nonpayable",
      "type": "function"
    },
    {
      "inputs": [],
      "name": "unpause",
      "outputs": [],
      "stateMutability": "nonpayable",
      "type": "function"
    }
  ],
  "bytecode": "0x608060405234801561001057600080fd5b5060405161443d38038061443d8339818101604052810190610032919061037a565b80838381600090816100449190610626565b5080600190816100549190610626565b505050600073ffffffffffffffffffffffffffffffffffffffff168173ffffffffffffffffffffffffffffffffffffffff16036100c95760006040517f1e4fbdf70000000000000000000000000000000000000000000000000000000081526004016100c09190610707565b60405180910390fd5b6100d8816100e160201b60201c565b50505050610722565b6000600760019054906101000a900473ffffffffffffffffffffffffffffffffffffffff16905081600760016101000a81548173ffffffffffffffffffffffffffffffffffffffff021916908373ffffffffffffffffffffffffffffffffffffffff1602179055508173ffffffffffffffffffffffffffffffffffffffff168173ffffffffffffffffffffffffffffffffffffffff167f8be0079c531659141344cd1fd0a4f28419497f9722a3daafe3b4186f6b6457e060405160405180910390a35050565b6000604051905090565b600080fd5b600080fd5b600080fd5b600080fd5b6000601f19601f8301169050919050565b7f4e487b7100000000000000000000000000000000000000000000000000000000600052604160045260246000fd5b61020e826101c5565b810181811067ffffffffffffffff8211171561022d5761022c6101d6565b5b80604052505050565b60006102406101a7565b905061024c8282610205565b919050565b600067ffffffffffffffff82111561026c5761026b6101d6565b5b610275826101c5565b9050602081019050919050565b60005b838110156102a0578082015181840152602081019050610285565b60008484015250505050565b60006102bf6102ba84610251565b610236565b9050828152602081018484840111156102db576102da6101c0565b5b6102e6848285610282565b509392505050565b600082601f830112610303576103026101bb565b5b81516103138482602086016102ac565b91505092915050565b600073ffffffffffffffffffffffffffffffffffffffff82169050919050565b60006103478261031c565b9050919050565b6103578161033c565b811461036257600080fd5b50565b6000815190506103748161034e565b92915050565b600080600060608486031215610393576103926101b1565b5b600084015167ffffffffffffffff8111156103b1576103b06101b6565b5b6103bd868287016102ee565b935050602084015167ffffffffffffffff8111156103de576103dd6101b6565b5b6103ea868287016102ee565b92505060406103fb86828701610365565b9150509250925092565b600081519050919050565b7f4e487b7100000000000000000000000000000000000000000000000000000000600052602260045260246000fd5b6000600282049050600182168061045757607f821691505b60208210810361046a57610469610410565b5b50919050565b60008190508160005260206000209050919050565b60006020601f8301049050919050565b600082821b905092915050565b6000600883026104d27fffffffffffffffffffffffffffffffffffffffffffffffffffffffffffffffff82610495565b6104dc8683610495565b95508019841693508086168417925050509392505050565b6000819050919050565b6000819050919050565b600061052361051e610519846104f4565b6104fe565b6104f4565b9050919050565b6000819050919050565b61053d83610508565b6105516105498261052a565b8484546104a2565b825550505050565b600090565b610566610559565b610571818484610534565b505050565b5b818110156105955761058a60008261055e565b600181019050610577565b5050565b601f8211156105da576105ab81610470565b6105b484610485565b810160208510156105c3578190505b6105d76105cf85610485565b830182610576565b50505b505050565b600082821c905092915050565b60006105fd600019846008026105df565b1980831691505092915050565b600061061683836105ec565b9150826002028217905092915050565b61062f82610405565b67ffffffffffffffff811115610648576106476101d6565b5b610652825461043f565b61065d828285610599565b600060209050601f831160018114610690576000841561067e578287015190505b610688858261060a565b8655506106f0565b601f19841661069e86610470565b60005b828110156106c6578489015182556001820191506020850194506020810190506106a1565b868310156106e357848901516106df601f8916826105ec565b8355505b6001600288020188555050505b505050505050565b6107018161033c565b82525050565b600060208201905061071c60008301846106f8565b92915050565b613d0c806107316000396000f3fe608060405234801561001057600080fd5b50600436106101da5760003560e01c80638456cb5911610104578063996c6a93116100a2578063c61de0f711610071578063c61de0f714610557578063c87b56dd14610587578063e985e9c5146105b7578063f2fde38b146105e7576101da565b8063996c6a93146104d3578063a22cb465146104ef578063b7abc58d1461050b578063b88d4fde1461053b576101da565b80638c7a63ae116100de5780638c7a63ae146104355780638da5cb5b1461046757806395d89b411461048557806395e347a5146104a3576101da565b80638456cb59146103ca578063873f6f9e146103d45780638c3238fd14610404576101da565b806342842e0e1161017c5780635c975abb1161014b5780635c975abb146103425780636352211e1461036057806370a0823114610390578063715018a6146103c0576101da565b806342842e0e146102bb57806342966c68146102d75780634de46fd0146102f35780635016959a14610324576101da565b8063095ea7b3116101b8578063095ea7b31461025d578063234151351461027957806323b872dd146102955780633f4ba83a146102b1576101da565b806301ffc9a7146101df57806306fdde031461020f578063081812fc1461022d575b600080fd5b6101f960048036038101906101f49190612be8565b610603565b6040516102069190612c30565b60405180910390f35b610217610615565b6040516102249190612cdb565b60405180910390f35b61024760048036038101906102429190612d33565b6106a7565b6040516102549190612da1565b60405180910390f35b61027760048036038101906102729190612de8565b6106c3565b005b610293600480360381019061028e9190612d33565b6106d9565b005b6102af60048036038101906102aa9190612e28565b610a13565b005b6102b9610b15565b005b6102d560048036038101906102d09190612e28565b610b27565b005b6102f160048036038101906102ec9190612d33565b610b47565b005b61030d60048036038101906103089190612d33565b610b5e565b60405161031b929190612e7b565b60405180910390f35b61032c610cd6565b6040516103399190612eba565b60405180910390f35b61034a610ce3565b6040516103579190612c30565b60405180910390f35b61037a60048036038101906103759190612d33565b610cfa565b6040516103879190612da1565b60405180910390f35b6103aa60048036038101906103a59190612ed5565b610d0c565b6040516103b79190612eba565b60405180910390f35b6103c8610dc6565b005b6103d2610dda565b005b6103ee60048036038101906103e99190612f02565b610dec565b6040516103fb9190612c30565b60405180910390f35b61041e60048036038101906104199190612d33565b610e1b565b60405161042c929190612e7b565b60405180910390f35b61044f600480360381019061044a9190612d33565b610ef7565b60405161045e93929190612f42565b60405180910390f35b61046f610fce565b60405161047c9190612da1565b60405180910390f35b61048d610ff8565b60405161049a9190612cdb565b60405180910390f35b6104bd60048036038101906104b89190612ed5565b61108a565b6040516104ca919061303e565b60405180910390f35b6104ed60048036038101906104e89190613195565b611225565b005b6105096004803603810190610504919061320a565b61133d565b005b61052560048036038101906105209190612d33565b611353565b6040516105329190612da1565b60405180910390f35b610555600480360381019061055091906132eb565b611386565b005b610571600480360381019061056c919061336e565b6113ab565b60405161057e9190613506565b60405180910390f35b6105a1600480360381019061059c9190612d33565b611609565b6040516105ae9190612cdb565b60405180910390f35b6105d160048036038101906105cc9190613528565b61161b565b6040516105de9190612c30565b60405180910390f35b61060160048036038101906105fc9190612ed5565b6116af565b005b600061060e82611735565b9050919050565b60606000805461062490613597565b80601f016020809104026020016040519081016040528092919081815260200182805461065090613597565b801561069d5780601f106106725761010080835404028352916020019161069d565b820191906000526020600020905b81548152906001019060200180831161068057829003601f168201915b5050505050905090565b60006106b282611796565b506106bc8261181e565b9050919050565b6106d582826106d061185b565b611863565b5050565b6009805490508110610720576040517f08c379a000000000000000000000000000000000000000000000000000000000815260040161071790613614565b60405180910390fd5b600a600082815260200190815260200160002060003373ffffffffffffffffffffffffffffffffffffffff1673ffffffffffffffffffffffffffffffffffffffff16815260200190815260200160002060009054906101000a900460ff16156107be576040517f08c379a00000000000000000000000000000000000000000000000000000000081526004016107b590613680565b60405180910390fd5b6000600982815481106107d4576107d36136a0565b5b90600052602060002090600202016040518060400160405290816000820160009054906101000a900473ffffffffffffffffffffffffffffffffffffffff1673ffffffffffffffffffffffffffffffffffffffff1673ffffffffffffffffffffffffffffffffffffffff16815260200160018201805461085390613597565b80601f016020809104026020016040519081016040528092919081815260200182805461087f90613597565b80156108cc5780601f106108a1576101008083540402835291602001916108cc565b820191906000526020600020905b8154815290600101906020018083116108af57829003601f168201915b50505050508152505090506001600a600084815260200190815260200160002060003373ffffffffffffffffffffffffffffffffffffffff1673ffffffffffffffffffffffffffffffffffffffff16815260200190815260200160002060006101000a81548160ff021916908315150217905550600060086000815480929190610955906136fe565b9190505590506109653382611875565b610973818360200151611893565b8160000151600b600083815260200190815260200160002060006101000a81548173ffffffffffffffffffffffffffffffffffffffff021916908373ffffffffffffffffffffffffffffffffffffffff1602179055503373ffffffffffffffffffffffffffffffffffffffff1683827f6ec566abcc537769386e364a259ab790e64cc318a0b38ceb454c967938d9cc5960405160405180910390a4505050565b600073ffffffffffffffffffffffffffffffffffffffff168273ffffffffffffffffffffffffffffffffffffffff1603610a855760006040517f64a0ae92000000000000000000000000000000000000000000000000000000008152600401610a7c9190612da1565b60405180910390fd5b6000610a998383610a9461185b565b6118ef565b90508373ffffffffffffffffffffffffffffffffffffffff168173ffffffffffffffffffffffffffffffffffffffff1614610b0f578382826040517f64283d7b000000000000000000000000000000000000000000000000000000008152600401610b0693929190613746565b60405180910390fd5b50505050565b610b1d6119bc565b610b25611a43565b565b610b4283838360405180602001604052806000815250611386565b505050565b610b5a600082610b5561185b565b6118ef565b5050565b600060606009805490508310610ba9576040517f08c379a0000000000000000000000000000000000000000000000000000000008152600401610ba0906137c9565b60405180910390fd5b600060098481548110610bbf57610bbe6136a0565b5b90600052602060002090600202016040518060400160405290816000820160009054906101000a900473ffffffffffffffffffffffffffffffffffffffff1673ffffffffffffffffffffffffffffffffffffffff1673ffffffffffffffffffffffffffffffffffffffff168152602001600182018054610c3e90613597565b80601f0160208091040260200160405190810160405280929190818152602001828054610c6a90613597565b8015610cb75780601f10610c8c57610100808354040283529160200191610cb7565b820191906000526020600020905b815481529060010190602001808311610c9a57829003601f168201915b5050505050815250509050806000015181602001519250925050915091565b6000600980549050905090565b6000600760009054906101000a900460ff16905090565b6000610d0582611796565b9050919050565b60008073ffffffffffffffffffffffffffffffffffffffff168273ffffffffffffffffffffffffffffffffffffffff1603610d7f5760006040517f89c62b64000000000000000000000000000000000000000000000000000000008152600401610d769190612da1565b60405180910390fd5b600360008373ffffffffffffffffffffffffffffffffffffffff1673ffffffffffffffffffffffffffffffffffffffff168152602001908152602001600020549050919050565b610dce6119bc565b610dd86000611aa6565b565b610de26119bc565b610dea611b6c565b565b600a6020528160005260406000206020528060005260406000206000915091509054906101000a900460ff1681565b60098181548110610e2b57600080fd5b90600052602060002090600202016000915090508060000160009054906101000a900473ffffffffffffffffffffffffffffffffffffffff1690806001018054610e7490613597565b80601f0160208091040260200160405190810160405280929190818152602001828054610ea090613597565b8015610eed5780601f10610ec257610100808354040283529160200191610eed565b820191906000526020600020905b815481529060010190602001808311610ed057829003601f168201915b5050505050905082565b60008060606000610f0785611bcf565b9050600073ffffffffffffffffffffffffffffffffffffffff168173ffffffffffffffffffffffffffffffffffffffff1603610f7a57846040517f7e273289000000000000000000000000000000000000000000000000000000008152600401610f719190612eba565b60405180910390fd5b610f8385610cfa565b600b600087815260200190815260200160002060009054906101000a900473ffffffffffffffffffffffffffffffffffffffff16610fc087611609565b935093509350509193909250565b6000600760019054906101000a900473ffffffffffffffffffffffffffffffffffffffff16905090565b60606001805461100790613597565b80601f016020809104026020016040519081016040528092919081815260200182805461103390613597565b80156110805780601f1061105557610100808354040283529160200191611080565b820191906000526020600020905b81548152906001019060200180831161106357829003601f168201915b5050505050905090565b6060600060098054905090506000805b8281101561112157600a600082815260200190815260200160002060008673ffffffffffffffffffffffffffffffffffffffff1673ffffffffffffffffffffffffffffffffffffffff16815260200190815260200160002060009054906101000a900460ff1615611114578180611110906136fe565b9250505b808060010191505061109a565b5060008167ffffffffffffffff81111561113e5761113d61306a565b5b60405190808252806020026020018201604052801561116c5781602001602082028036833780820191505090505b5090506000805b8481101561121857600a600082815260200190815260200160002060008873ffffffffffffffffffffffffffffffffffffffff1673ffffffffffffffffffffffffffffffffffffffff16815260200190815260200160002060009054906101000a900460ff161561120b57808383806111eb906136fe565b9450815181106111fe576111fd6136a0565b5b6020026020010181815250505b8080600101915050611173565b5081945050505050919050565b600960405180604001604052803373ffffffffffffffffffffffffffffffffffffffff16815260200183815250908060018154018082558091505060019003906000526020600020906002020160009091909190915060008201518160000160006101000a81548173ffffffffffffffffffffffffffffffffffffffff021916908373ffffffffffffffffffffffffffffffffffffffff16021790555060208201518160010190816112d79190613995565b5050503373ffffffffffffffffffffffffffffffffffffffff1660016009805490506113039190613a67565b7f22d0d95a6e734fd2a0814f2d3a60d2693b38c109d49d9b41e1a950105a6e5e5f836040516113329190612cdb565b60405180910390a350565b61134f61134861185b565b8383611c0c565b5050565b600b6020528060005260406000206000915054906101000a900473ffffffffffffffffffffffffffffffffffffffff1681565b611391848484610a13565b6113a561139c61185b565b85858585611d7b565b50505050565b6060600060098054905090508084106114205760008067ffffffffffffffff8111156113da576113d961306a565b5b60405190808252806020026020018201604052801561141357816020015b611400612b4c565b8152602001906001900390816113f85790505b5090508092505050611603565b6000838561142e9190613a9b565b90508181111561143c578190505b6000858261144a9190613a67565b905060008167ffffffffffffffff8111156114685761146761306a565b5b6040519080825280602002602001820160405280156114a157816020015b61148e612b4c565b8152602001906001900390816114865790505b50905060005b828110156115fa57600981896114bd9190613a9b565b815481106114ce576114cd6136a0565b5b90600052602060002090600202016040518060400160405290816000820160009054906101000a900473ffffffffffffffffffffffffffffffffffffffff1673ffffffffffffffffffffffffffffffffffffffff1673ffffffffffffffffffffffffffffffffffffffff16815260200160018201805461154d90613597565b80601f016020809104026020016040519081016040528092919081815260200182805461157990613597565b80156115c65780601f1061159b576101008083540402835291602001916115c6565b820191906000526020600020905b8154815290600101906020018083116115a957829003601f168201915b5050505050815250508282815181106115e2576115e16136a0565b5b602002602001018190525080806001019150506114a7565b50809450505050505b92915050565b606061161482611f2c565b9050919050565b6000600560008473ffffffffffffffffffffffffffffffffffffffff1673ffffffffffffffffffffffffffffffffffffffff16815260200190815260200160002060008373ffffffffffffffffffffffffffffffffffffffff1673ffffffffffffffffffffffffffffffffffffffff16815260200190815260200160002060009054906101000a900460ff16905092915050565b6116b76119bc565b600073ffffffffffffffffffffffffffffffffffffffff168173ffffffffffffffffffffffffffffffffffffffff16036117295760006040517f1e4fbdf70000000000000000000000000000000000000000000000000000000081526004016117209190612da1565b60405180910390fd5b61173281611aa6565b50565b6000634906490660e01b7bffffffffffffffffffffffffffffffffffffffffffffffffffffffff1916827bffffffffffffffffffffffffffffffffffffffffffffffffffffffff1916148061178f575061178e8261203f565b5b9050919050565b6000806117a283611bcf565b9050600073ffffffffffffffffffffffffffffffffffffffff168173ffffffffffffffffffffffffffffffffffffffff160361181557826040517f7e27328900000000000000000000000000000000000000000000000000000000815260040161180c9190612eba565b60405180910390fd5b80915050919050565b60006004600083815260200190815260200160002060009054906101000a900473ffffffffffffffffffffffffffffffffffffffff169050919050565b600033905090565b6118708383836001612121565b505050565b61188f8282604051806020016040528060008152506122e6565b5050565b806006600084815260200190815260200160002090816118b39190613995565b507ff8e1a15aba9398e019f0b49df1a4fde98ee17ae345cb5f6b5e2c27f5033e8ce7826040516118e39190612eba565b60405180910390a15050565b6000806118fb84611bcf565b9050600073ffffffffffffffffffffffffffffffffffffffff168173ffffffffffffffffffffffffffffffffffffffff16141580156119675750600073ffffffffffffffffffffffffffffffffffffffff168573ffffffffffffffffffffffffffffffffffffffff1614155b156119a7576040517f08c379a000000000000000000000000000000000000000000000000000000000815260040161199e90613b1b565b60405180910390fd5b6119b285858561230a565b9150509392505050565b6119c461185b565b73ffffffffffffffffffffffffffffffffffffffff166119e2610fce565b73ffffffffffffffffffffffffffffffffffffffff1614611a4157611a0561185b565b6040517f118cdaa7000000000000000000000000000000000000000000000000000000008152600401611a389190612da1565b60405180910390fd5b565b611a4b612328565b6000600760006101000a81548160ff0219169083151502179055507f5db9ee0a495bf2e6ff9c91a7834c1ba4fdd244a5e8aa4e537bd38aeae4b073aa611a8f61185b565b604051611a9c9190612da1565b60405180910390a1565b6000600760019054906101000a900473ffffffffffffffffffffffffffffffffffffffff16905081600760016101000a81548173ffffffffffffffffffffffffffffffffffffffff021916908373ffffffffffffffffffffffffffffffffffffffff1602179055508173ffffffffffffffffffffffffffffffffffffffff168173ffffffffffffffffffffffffffffffffffffffff167f8be0079c531659141344cd1fd0a4f28419497f9722a3daafe3b4186f6b6457e060405160405180910390a35050565b611b74612368565b6001600760006101000a81548160ff0219169083151502179055507f62e78cea01bee320cd4e420270b5ea74000d11b0c9f74754ebdbfc544b05a258611bb861185b565b604051611bc59190612da1565b60405180910390a1565b60006002600083815260200190815260200160002060009054906101000a900473ffffffffffffffffffffffffffffffffffffffff169050919050565b600073ffffffffffffffffffffffffffffffffffffffff168273ffffffffffffffffffffffffffffffffffffffff1603611c7d57816040517f5b08ba18000000000000000000000000000000000000000000000000000000008152600401611c749190612da1565b60405180910390fd5b80600560008573ffffffffffffffffffffffffffffffffffffffff1673ffffffffffffffffffffffffffffffffffffffff16815260200190815260200160002060008473ffffffffffffffffffffffffffffffffffffffff1673ffffffffffffffffffffffffffffffffffffffff16815260200190815260200160002060006101000a81548160ff0219169083151502179055508173ffffffffffffffffffffffffffffffffffffffff168373ffffffffffffffffffffffffffffffffffffffff167f17307eab39ab6107e8899845ad3d59bd9653f200f220920489ca2b5937696c3183604051611d6e9190612c30565b60405180910390a3505050565b60008373ffffffffffffffffffffffffffffffffffffffff163b1115611f25578273ffffffffffffffffffffffffffffffffffffffff1663150b7a02868685856040518563ffffffff1660e01b8152600401611dda9493929190613b90565b6020604051808303816000875af1925050508015611e1657506040513d601f19601f82011682018060405250810190611e139190613bf1565b60015b611e9a573d8060008114611e46576040519150601f19603f3d011682016040523d82523d6000602084013e611e4b565b606091505b506000815103611e9257836040517f64a0ae92000000000000000000000000000000000000000000000000000000008152600401611e899190612da1565b60405180910390fd5b805181602001fd5b63150b7a0260e01b7bffffffffffffffffffffffffffffffffffffffffffffffffffffffff1916817bffffffffffffffffffffffffffffffffffffffffffffffffffffffff191614611f2357836040517f64a0ae92000000000000000000000000000000000000000000000000000000008152600401611f1a9190612da1565b60405180910390fd5b505b5050505050565b6060611f3782611796565b506000600660008481526020019081526020016000208054611f5890613597565b80601f0160208091040260200160405190810160405280929190818152602001828054611f8490613597565b8015611fd15780601f10611fa657610100808354040283529160200191611fd1565b820191906000526020600020905b815481529060010190602001808311611fb457829003601f168201915b505050505090506000611fe26123a9565b90506000815103611ff757819250505061203a565b60008251111561202c578082604051602001612014929190613c5a565b6040516020818303038152906040529250505061203a565b612035846123c0565b925050505b919050565b60007f80ac58cd000000000000000000000000000000000000000000000000000000007bffffffffffffffffffffffffffffffffffffffffffffffffffffffff1916827bffffffffffffffffffffffffffffffffffffffffffffffffffffffff1916148061210a57507f5b5e139f000000000000000000000000000000000000000000000000000000007bffffffffffffffffffffffffffffffffffffffffffffffffffffffff1916827bffffffffffffffffffffffffffffffffffffffffffffffffffffffff1916145b8061211a575061211982612429565b5b9050919050565b808061215a5750600073ffffffffffffffffffffffffffffffffffffffff168273ffffffffffffffffffffffffffffffffffffffff1614155b1561228e57600061216a84611796565b9050600073ffffffffffffffffffffffffffffffffffffffff168373ffffffffffffffffffffffffffffffffffffffff16141580156121d557508273ffffffffffffffffffffffffffffffffffffffff168173ffffffffffffffffffffffffffffffffffffffff1614155b80156121e857506121e6818461161b565b155b1561222a57826040517fa9fbf51f0000000000000000000000000000000000000000000000000000000081526004016122219190612da1565b60405180910390fd5b811561228c57838573ffffffffffffffffffffffffffffffffffffffff168273ffffffffffffffffffffffffffffffffffffffff167f8c5be1e5ebec7d5bd14f71427d1e84f3dd0314c0f7b2291e5b200ac8c7c3b92560405160405180910390a45b505b836004600085815260200190815260200160002060006101000a81548173ffffffffffffffffffffffffffffffffffffffff021916908373ffffffffffffffffffffffffffffffffffffffff16021790555050505050565b6122f08383612493565b6123056122fb61185b565b6000858585611d7b565b505050565b6000612314612368565b61231f84848461258c565b90509392505050565b612330610ce3565b612366576040517f8dfc202b00000000000000000000000000000000000000000000000000000000815260040160405180910390fd5b565b612370610ce3565b156123a7576040517fd93c066500000000000000000000000000000000000000000000000000000000815260040160405180910390fd5b565b606060405180602001604052806000815250905090565b60606123cb82611796565b5060006123d66123a9565b905060008151116123f65760405180602001604052806000815250612421565b80612400846127a6565b604051602001612411929190613c5a565b6040516020818303038152906040525b915050919050565b60007f01ffc9a7000000000000000000000000000000000000000000000000000000007bffffffffffffffffffffffffffffffffffffffffffffffffffffffff1916827bffffffffffffffffffffffffffffffffffffffffffffffffffffffff1916149050919050565b600073ffffffffffffffffffffffffffffffffffffffff168273ffffffffffffffffffffffffffffffffffffffff16036125055760006040517f64a0ae920000000000000000000000000000000000000000000000000000000081526004016124fc9190612da1565b60405180910390fd5b6000612513838360006118ef565b9050600073ffffffffffffffffffffffffffffffffffffffff168173ffffffffffffffffffffffffffffffffffffffff16146125875760006040517f73c6ac6e00000000000000000000000000000000000000000000000000000000815260040161257e9190612da1565b60405180910390fd5b505050565b60008061259884611bcf565b9050600073ffffffffffffffffffffffffffffffffffffffff168373ffffffffffffffffffffffffffffffffffffffff16146125da576125d9818486612874565b5b600073ffffffffffffffffffffffffffffffffffffffff168173ffffffffffffffffffffffffffffffffffffffff161461266b5761261c600085600080612121565b6001600360008373ffffffffffffffffffffffffffffffffffffffff1673ffffffffffffffffffffffffffffffffffffffff168152602001908152602001600020600082825403925050819055505b600073ffffffffffffffffffffffffffffffffffffffff168573ffffffffffffffffffffffffffffffffffffffff16146126ee576001600360008773ffffffffffffffffffffffffffffffffffffffff1673ffffffffffffffffffffffffffffffffffffffff168152602001908152602001600020600082825401925050819055505b846002600086815260200190815260200160002060006101000a81548173ffffffffffffffffffffffffffffffffffffffff021916908373ffffffffffffffffffffffffffffffffffffffff160217905550838573ffffffffffffffffffffffffffffffffffffffff168273ffffffffffffffffffffffffffffffffffffffff167fddf252ad1be2c89b69c2b068fc378daa952ba7f163c4a11628f55a4df523b3ef60405160405180910390a4809150509392505050565b6060600060016127b584612938565b01905060008167ffffffffffffffff8111156127d4576127d361306a565b5b6040519080825280601f01601f1916602001820160405280156128065781602001600182028036833780820191505090505b509050600082602001820190505b600115612869578080600190039150507f3031323334353637383961626364656600000000000000000000000000000000600a86061a8153600a858161285d5761285c613c7e565b5b04945060008503612814575b819350505050919050565b61287f838383612a8b565b61293357600073ffffffffffffffffffffffffffffffffffffffff168373ffffffffffffffffffffffffffffffffffffffff16036128f457806040517f7e2732890000000000000000000000000000000000000000000000000000000081526004016128eb9190612eba565b60405180910390fd5b81816040517f177e802f00000000000000000000000000000000000000000000000000000000815260040161292a929190613cad565b60405180910390fd5b505050565b600080600090507a184f03e93ff9f4daa797ed6e38ed64bf6a1f0100000000000000008310612996577a184f03e93ff9f4daa797ed6e38ed64bf6a1f010000000000000000838161298c5761298b613c7e565b5b0492506040810190505b6d04ee2d6d415b85acef810000000083106129d3576d04ee2d6d415b85acef810000000083816129c9576129c8613c7e565b5b0492506020810190505b662386f26fc100008310612a0257662386f26fc1000083816129f8576129f7613c7e565b5b0492506010810190505b6305f5e1008310612a2b576305f5e1008381612a2157612a20613c7e565b5b0492506008810190505b6127108310612a50576127108381612a4657612a45613c7e565b5b0492506004810190505b60648310612a735760648381612a6957612a68613c7e565b5b0492506002810190505b600a8310612a82576001810190505b80915050919050565b60008073ffffffffffffffffffffffffffffffffffffffff168373ffffffffffffffffffffffffffffffffffffffff1614158015612b4357508273ffffffffffffffffffffffffffffffffffffffff168473ffffffffffffffffffffffffffffffffffffffff161480612b045750612b03848461161b565b5b80612b4257508273ffffffffffffffffffffffffffffffffffffffff16612b2a8361181e565b73ffffffffffffffffffffffffffffffffffffffff16145b5b90509392505050565b6040518060400160405280600073ffffffffffffffffffffffffffffffffffffffff168152602001606081525090565b6000604051905090565b600080fd5b600080fd5b60007fffffffff0000000000000000000000000000000000000000000000000000000082169050919050565b612bc581612b90565b8114612bd057600080fd5b50565b600081359050612be281612bbc565b92915050565b600060208284031215612bfe57612bfd612b86565b5b6000612c0c84828501612bd3565b91505092915050565b60008115159050919050565b612c2a81612c15565b82525050565b6000602082019050612c456000830184612c21565b92915050565b600081519050919050565b600082825260208201905092915050565b60005b83811015612c85578082015181840152602081019050612c6a565b60008484015250505050565b6000601f19601f8301169050919050565b6000612cad82612c4b565b612cb78185612c56565b9350612cc7818560208601612c67565b612cd081612c91565b840191505092915050565b60006020820190508181036000830152612cf58184612ca2565b905092915050565b6000819050919050565b612d1081612cfd565b8114612d1b57600080fd5b50565b600081359050612d2d81612d07565b92915050565b600060208284031215612d4957612d48612b86565b5b6000612d5784828501612d1e565b91505092915050565b600073ffffffffffffffffffffffffffffffffffffffff82169050919050565b6000612d8b82612d60565b9050919050565b612d9b81612d80565b82525050565b6000602082019050612db66000830184612d92565b92915050565b612dc581612d80565b8114612dd057600080fd5b50565b600081359050612de281612dbc565b92915050565b60008060408385031215612dff57612dfe612b86565b5b6000612e0d85828601612dd3565b9250506020612e1e85828601612d1e565b9150509250929050565b600080600060608486031215612e4157612e40612b86565b5b6000612e4f86828701612dd3565b9350506020612e6086828701612dd3565b9250506040612e7186828701612d1e565b9150509250925092565b6000604082019050612e906000830185612d92565b8181036020830152612ea28184612ca2565b90509392505050565b612eb481612cfd565b82525050565b6000602082019050612ecf6000830184612eab565b92915050565b600060208284031215612eeb57612eea612b86565b5b6000612ef984828501612dd3565b91505092915050565b60008060408385031215612f1957612f18612b86565b5b6000612f2785828601612d1e565b9250506020612f3885828601612dd3565b9150509250929050565b6000606082019050612f576000830186612d92565b612f646020830185612d92565b8181036040830152612f768184612ca2565b9050949350505050565b600081519050919050565b600082825260208201905092915050565b6000819050602082019050919050565b612fb581612cfd565b82525050565b6000612fc78383612fac565b60208301905092915050565b6000602082019050919050565b6000612feb82612f80565b612ff58185612f8b565b935061300083612f9c565b8060005b838110156130315781516130188882612fbb565b975061302383612fd3565b925050600181019050613004565b5085935050505092915050565b600060208201905081810360008301526130588184612fe0565b905092915050565b600080fd5b600080fd5b7f4e487b7100000000000000000000000000000000000000000000000000000000600052604160045260246000fd5b6130a282612c91565b810181811067ffffffffffffffff821117156130c1576130c061306a565b5b80604052505050565b60006130d4612b7c565b90506130e08282613099565b919050565b600067ffffffffffffffff821115613100576130ff61306a565b5b61310982612c91565b9050602081019050919050565b82818337600083830152505050565b6000613138613133846130e5565b6130ca565b90508281526020810184848401111561315457613153613065565b5b61315f848285613116565b509392505050565b600082601f83011261317c5761317b613060565b5b813561318c848260208601613125565b91505092915050565b6000602082840312156131ab576131aa612b86565b5b600082013567ffffffffffffffff8111156131c9576131c8612b8b565b5b6131d584828501613167565b91505092915050565b6131e781612c15565b81146131f257600080fd5b50565b600081359050613204816131de565b92915050565b6000806040838503121561322157613220612b86565b5b600061322f85828601612dd3565b9250506020613240858286016131f5565b9150509250929050565b600067ffffffffffffffff8211156132655761326461306a565b5b61326e82612c91565b9050602081019050919050565b600061328e6132898461324a565b6130ca565b9050828152602081018484840111156132aa576132a9613065565b5b6132b5848285613116565b509392505050565b600082601f8301126132d2576132d1613060565b5b81356132e284826020860161327b565b91505092915050565b6000806000806080858703121561330557613304612b86565b5b600061331387828801612dd3565b945050602061332487828801612dd3565b935050604061333587828801612d1e565b925050606085013567ffffffffffffffff81111561335657613355612b8b565b5b613362878288016132bd565b91505092959194509250565b6000806040838503121561338557613384612b86565b5b600061339385828601612d1e565b92505060206133a485828601612d1e565b9150509250929050565b600081519050919050565b600082825260208201905092915050565b6000819050602082019050919050565b6133e381612d80565b82525050565b600082825260208201905092915050565b600061340582612c4b565b61340f81856133e9565b935061341f818560208601612c67565b61342881612c91565b840191505092915050565b600060408301600083015161344b60008601826133da565b506020830151848203602086015261346382826133fa565b9150508091505092915050565b600061347c8383613433565b905092915050565b6000602082019050919050565b600061349c826133ae565b6134a681856133b9565b9350836020820285016134b8856133ca565b8060005b858110156134f457848403895281516134d58582613470565b94506134e083613484565b925060208a019950506001810190506134bc565b50829750879550505050505092915050565b600060208201905081810360008301526135208184613491565b905092915050565b6000806040838503121561353f5761353e612b86565b5b600061354d85828601612dd3565b925050602061355e85828601612dd3565b9150509250929050565b7f4e487b7100000000000000000000000000000000000000000000000000000000600052602260045260246000fd5b600060028204905060018216806135af57607f821691505b6020821081036135c2576135c1613568565b5b50919050565b7f496e76616c69642062616467652074656d706c61746500000000000000000000600082015250565b60006135fe601683612c56565b9150613609826135c8565b602082019050919050565b6000602082019050818103600083015261362d816135f1565b9050919050565b7f426164676520616c726561647920636c61696d65640000000000000000000000600082015250565b600061366a601583612c56565b915061367582613634565b602082019050919050565b600060208201905081810360008301526136998161365d565b9050919050565b7f4e487b7100000000000000000000000000000000000000000000000000000000600052603260045260246000fd5b7f4e487b7100000000000000000000000000000000000000000000000000000000600052601160045260246000fd5b600061370982612cfd565b91507fffffffffffffffffffffffffffffffffffffffffffffffffffffffffffffffff820361373b5761373a6136cf565b5b600182019050919050565b600060608201905061375b6000830186612d92565b6137686020830185612eab565b6137756040830184612d92565b949350505050565b7f496e76616c69642074656d706c61746549640000000000000000000000000000600082015250565b60006137b3601283612c56565b91506137be8261377d565b602082019050919050565b600060208201905081810360008301526137e2816137a6565b9050919050565b60008190508160005260206000209050919050565b60006020601f8301049050919050565b600082821b905092915050565b60006008830261384b7fffffffffffffffffffffffffffffffffffffffffffffffffffffffffffffffff8261380e565b613855868361380e565b95508019841693508086168417925050509392505050565b6000819050919050565b600061389261388d61388884612cfd565b61386d565b612cfd565b9050919050565b6000819050919050565b6138ac83613877565b6138c06138b882613899565b84845461381b565b825550505050565b600090565b6138d56138c8565b6138e08184846138a3565b505050565b5b81811015613904576138f96000826138cd565b6001810190506138e6565b5050565b601f8211156139495761391a816137e9565b613923846137fe565b81016020851015613932578190505b61394661393e856137fe565b8301826138e5565b50505b505050565b600082821c905092915050565b600061396c6000198460080261394e565b1980831691505092915050565b6000613985838361395b565b9150826002028217905092915050565b61399e82612c4b565b67ffffffffffffffff8111156139b7576139b661306a565b5b6139c18254613597565b6139cc828285613908565b600060209050601f8311600181146139ff57600084156139ed578287015190505b6139f78582613979565b865550613a5f565b601f198416613a0d866137e9565b60005b82811015613a3557848901518255600182019150602085019450602081019050613a10565b86831015613a525784890151613a4e601f89168261395b565b8355505b6001600288020188555050505b505050505050565b6000613a7282612cfd565b9150613a7d83612cfd565b9250828203905081811115613a9557613a946136cf565b5b92915050565b6000613aa682612cfd565b9150613ab183612cfd565b9250828201905080821115613ac957613ac86136cf565b5b92915050565b7f536f756c626f756e643a205472616e73666572206661696c6564000000000000600082015250565b6000613b05601a83612c56565b9150613b1082613acf565b602082019050919050565b60006020820190508181036000830152613b3481613af8565b9050919050565b600081519050919050565b600082825260208201905092915050565b6000613b6282613b3b565b613b6c8185613b46565b9350613b7c818560208601612c67565b613b8581612c91565b840191505092915050565b6000608082019050613ba56000830187612d92565b613bb26020830186612d92565b613bbf6040830185612eab565b8181036060830152613bd18184613b57565b905095945050505050565b600081519050613beb81612bbc565b92915050565b600060208284031215613c0757613c06612b86565b5b6000613c1584828501613bdc565b91505092915050565b600081905092915050565b6000613c3482612c4b565b613c3e8185613c1e565b9350613c4e818560208601612c67565b80840191505092915050565b6000613c668285613c29565b9150613c728284613c29565b91508190509392505050565b7f4e487b7100000000000000000000000000000000000000000000000000000000600052601260045260246000fd5b6000604082019050613cc26000830185612d92565b613ccf6020830184612eab565b939250505056fea264697066735822122063678afe937ccd5ec7a97db9b0a4338b06f5ab4686488297ae3bc49c50a7076d64736f6c634300081c0033",
  "linkReferences": {},
  "deployedLinkReferences": {}
}